{
  "contractName": "Tododapp",
  "abi": [
    {
      "inputs": [
        {
          "internalType": "address",
          "name": "",
          "type": "address"
        },
        {
          "internalType": "uint256",
          "name": "",
          "type": "uint256"
        }
      ],
      "name": "Users",
      "outputs": [
        {
          "internalType": "bool",
          "name": "completed",
          "type": "bool"
        },
        {
          "internalType": "string",
          "name": "task",
          "type": "string"
        }
      ],
      "stateMutability": "view",
      "type": "function"
    },
    {
      "inputs": [
        {
          "internalType": "string",
          "name": "_task",
          "type": "string"
        }
      ],
      "name": "addTask",
      "outputs": [],
      "stateMutability": "nonpayable",
      "type": "function"
    },
    {
      "inputs": [
        {
          "internalType": "uint256",
          "name": "_index",
          "type": "uint256"
        }
      ],
      "name": "getTask",
      "outputs": [
        {
          "components": [
            {
              "internalType": "bool",
              "name": "completed",
              "type": "bool"
            },
            {
              "internalType": "string",
              "name": "task",
              "type": "string"
            }
          ],
          "internalType": "struct Tododapp.Task",
          "name": "",
          "type": "tuple"
        }
      ],
      "stateMutability": "view",
      "type": "function"
    },
    {
      "inputs": [
        {
          "internalType": "uint256",
          "name": "_index",
          "type": "uint256"
        },
        {
          "internalType": "bool",
          "name": "_status",
          "type": "bool"
        }
      ],
      "name": "updateTask",
      "outputs": [],
      "stateMutability": "nonpayable",
      "type": "function"
    },
    {
      "inputs": [
        {
          "internalType": "uint256",
          "name": "_index",
          "type": "uint256"
        }
      ],
      "name": "isDone",
      "outputs": [],
      "stateMutability": "nonpayable",
      "type": "function"
    },
    {
      "inputs": [],
      "name": "totalTasks",
      "outputs": [
        {
          "internalType": "uint256",
          "name": "",
          "type": "uint256"
        }
      ],
      "stateMutability": "view",
      "type": "function"
    }
  ],
  "bytecode": "0x608060405234801561001057600080fd5b50610bd4806100206000396000f3fe608060405234801561001057600080fd5b50600436106100625760003560e01c806313e8544e14610067578063174c395a146100985780631d65e77e146100b45780635e1bf4a1146100e45780636723856214610100578063d22c81e51461011c575b600080fd5b610081600480360381019061007c91906106f1565b61013a565b60405161008f9291906107e5565b60405180910390f35b6100b260048036038101906100ad9190610815565b610210565b005b6100ce60048036038101906100c99190610815565b610298565b6040516100db91906108d8565b60405180910390f35b6100fe60048036038101906100f99190610926565b6103c3565b005b61011a60048036038101906101159190610a9b565b610440565b005b610124610501565b6040516101319190610af3565b60405180910390f35b6000602052816000526040600020818154811061015657600080fd5b9060005260206000209060020201600091509150508060000160009054906101000a900460ff169080600101805461018d90610b3d565b80601f01602080910402602001604051908101604052809291908181526020018280546101b990610b3d565b80156102065780601f106101db57610100808354040283529160200191610206565b820191906000526020600020905b8154815290600101906020018083116101e957829003601f168201915b5050505050905082565b6000803373ffffffffffffffffffffffffffffffffffffffff1673ffffffffffffffffffffffffffffffffffffffff16815260200190815260200160002081815481106102605761025f610b6f565b5b9060005260206000209060020201600080820160006101000a81549060ff0219169055600182016000610293919061054a565b505050565b6102a061058a565b60008060003373ffffffffffffffffffffffffffffffffffffffff1673ffffffffffffffffffffffffffffffffffffffff16815260200190815260200160002083815481106102f2576102f1610b6f565b5b90600052602060002090600202016040518060400160405290816000820160009054906101000a900460ff1615151515815260200160018201805461033690610b3d565b80601f016020809104026020016040519081016040528092919081815260200182805461036290610b3d565b80156103af5780601f10610384576101008083540402835291602001916103af565b820191906000526020600020905b81548152906001019060200180831161039257829003601f168201915b505050505081525050905080915050919050565b806000803373ffffffffffffffffffffffffffffffffffffffff1673ffffffffffffffffffffffffffffffffffffffff168152602001908152602001600020838154811061041457610413610b6f565b5b906000526020600020906002020160000160006101000a81548160ff0219169083151502179055505050565b6000803373ffffffffffffffffffffffffffffffffffffffff1673ffffffffffffffffffffffffffffffffffffffff168152602001908152602001600020604051806040016040528060001515815260200183815250908060018154018082558091505060019003906000526020600020906002020160009091909190915060008201518160000160006101000a81548160ff02191690831515021790555060208201518160010190805190602001906104fb9291906105a6565b50505050565b60008060003373ffffffffffffffffffffffffffffffffffffffff1673ffffffffffffffffffffffffffffffffffffffff16815260200190815260200160002080549050905090565b50805461055690610b3d565b6000825580601f106105685750610587565b601f016020900490600052602060002090810190610586919061062c565b5b50565b6040518060400160405280600015158152602001606081525090565b8280546105b290610b3d565b90600052602060002090601f0160209004810192826105d4576000855561061b565b82601f106105ed57805160ff191683800117855561061b565b8280016001018555821561061b579182015b8281111561061a5782518255916020019190600101906105ff565b5b509050610628919061062c565b5090565b5b8082111561064557600081600090555060010161062d565b5090565b6000604051905090565b600080fd5b600080fd5b600073ffffffffffffffffffffffffffffffffffffffff82169050919050565b60006106888261065d565b9050919050565b6106988161067d565b81146106a357600080fd5b50565b6000813590506106b58161068f565b92915050565b6000819050919050565b6106ce816106bb565b81146106d957600080fd5b50565b6000813590506106eb816106c5565b92915050565b6000806040838503121561070857610707610653565b5b6000610716858286016106a6565b9250506020610727858286016106dc565b9150509250929050565b60008115159050919050565b61074681610731565b82525050565b600081519050919050565b600082825260208201905092915050565b60005b8381101561078657808201518184015260208101905061076b565b83811115610795576000848401525b50505050565b6000601f19601f8301169050919050565b60006107b78261074c565b6107c18185610757565b93506107d1818560208601610768565b6107da8161079b565b840191505092915050565b60006040820190506107fa600083018561073d565b818103602083015261080c81846107ac565b90509392505050565b60006020828403121561082b5761082a610653565b5b6000610839848285016106dc565b91505092915050565b61084b81610731565b82525050565b600082825260208201905092915050565b600061086d8261074c565b6108778185610851565b9350610887818560208601610768565b6108908161079b565b840191505092915050565b60006040830160008301516108b36000860182610842565b50602083015184820360208601526108cb8282610862565b9150508091505092915050565b600060208201905081810360008301526108f2818461089b565b905092915050565b61090381610731565b811461090e57600080fd5b50565b600081359050610920816108fa565b92915050565b6000806040838503121561093d5761093c610653565b5b600061094b858286016106dc565b925050602061095c85828601610911565b9150509250929050565b600080fd5b600080fd5b7f4e487b7100000000000000000000000000000000000000000000000000000000600052604160045260246000fd5b6109a88261079b565b810181811067ffffffffffffffff821117156109c7576109c6610970565b5b80604052505050565b60006109da610649565b90506109e6828261099f565b919050565b600067ffffffffffffffff821115610a0657610a05610970565b5b610a0f8261079b565b9050602081019050919050565b82818337600083830152505050565b6000610a3e610a39846109eb565b6109d0565b905082815260208101848484011115610a5a57610a5961096b565b5b610a65848285610a1c565b509392505050565b600082601f830112610a8257610a81610966565b5b8135610a92848260208601610a2b565b91505092915050565b600060208284031215610ab157610ab0610653565b5b600082013567ffffffffffffffff811115610acf57610ace610658565b5b610adb84828501610a6d565b91505092915050565b610aed816106bb565b82525050565b6000602082019050610b086000830184610ae4565b92915050565b7f4e487b7100000000000000000000000000000000000000000000000000000000600052602260045260246000fd5b60006002820490506001821680610b5557607f821691505b60208210811415610b6957610b68610b0e565b5b50919050565b7f4e487b7100000000000000000000000000000000000000000000000000000000600052603260045260246000fdfea264697066735822122062b5ffc712fe088c404001d56959a2c02400c6cc00ee16066e2beee1a09b2a3f64736f6c634300080b0033",
  "immutableReferences": {},
  "source": "pragma solidity >=0.4.22 <0.9.0;\r\n\r\ncontract Tododapp {\r\n    struct Task {\r\n        bool completed;\r\n        string task;\r\n    }\r\n\r\n    mapping(address => Task[]) public Users;\r\n\r\n    function addTask(string memory _task) external {\r\n        Users[msg.sender].push(Task({task: _task, completed: false}));\r\n    }\r\n\r\n    function getTask(uint256 _index) external view returns (Task memory) {\r\n        Task memory task = Users[msg.sender][_index];\r\n        return task;\r\n    }\r\n\r\n    function updateTask(uint256 _index, bool _status) external {\r\n        Users[msg.sender][_index].completed = _status;\r\n    }\r\n\r\n    function isDone(uint256 _index) external {\r\n        delete Users[msg.sender][_index];\r\n    }\r\n\r\n    function totalTasks() external view returns (uint256) {\r\n        return Users[msg.sender].length;\r\n    }\r\n}\r\n",
  "sourcePath": "C:\\Users\\ZOHEB AHMED\\OneDrive\\Desktop\\tododapp\\contracts\\contracts\\tododapp.sol",
  "compiler": {
    "name": "solc",
    "version": "0.8.11+commit.d7f03943.Emscripten.clang"
  },
  "schemaVersion": "3.4.4",
  "updatedAt": "2022-09-04T20:24:04.046Z",
  "devdoc": {
    "kind": "dev",
    "methods": {},
    "version": 1
  },
  "userdoc": {
    "kind": "user",
    "methods": {},
    "version": 1
  }
}